{
  "_format": "hh-sol-artifact-1",
  "contractName": "Voting",
  "sourceName": "contracts/Voting.sol",
  "abi": [
    {
      "inputs": [
        {
          "internalType": "bytes32[]",
          "name": "_candidateList",
          "type": "bytes32[]"
        }
      ],
      "stateMutability": "nonpayable",
      "type": "constructor"
    },
    {
      "anonymous": false,
      "inputs": [
        {
          "indexed": true,
          "internalType": "address",
          "name": "previousOwner",
          "type": "address"
        },
        {
          "indexed": true,
          "internalType": "address",
          "name": "newOwner",
          "type": "address"
        }
      ],
      "name": "OwnershipTransferred",
      "type": "event"
    },
    {
      "inputs": [],
      "name": "getCandidateList",
      "outputs": [
        {
          "internalType": "bytes32[]",
          "name": "",
          "type": "bytes32[]"
        }
      ],
      "stateMutability": "view",
      "type": "function"
    },
    {
      "inputs": [
        {
          "internalType": "uint256",
          "name": "_id",
          "type": "uint256"
        }
      ],
      "name": "getCandidateVote",
      "outputs": [
        {
          "internalType": "uint256",
          "name": "",
          "type": "uint256"
        }
      ],
      "stateMutability": "view",
      "type": "function"
    },
    {
      "inputs": [],
      "name": "getStatus",
      "outputs": [
        {
          "internalType": "bool",
          "name": "",
          "type": "bool"
        }
      ],
      "stateMutability": "view",
      "type": "function"
    },
    {
      "inputs": [],
      "name": "owner",
      "outputs": [
        {
          "internalType": "address",
          "name": "",
          "type": "address"
        }
      ],
      "stateMutability": "view",
      "type": "function"
    },
    {
      "inputs": [],
      "name": "renounceOwnership",
      "outputs": [],
      "stateMutability": "nonpayable",
      "type": "function"
    },
    {
      "inputs": [],
      "name": "toggleVote",
      "outputs": [],
      "stateMutability": "nonpayable",
      "type": "function"
    },
    {
      "inputs": [
        {
          "internalType": "address",
          "name": "newOwner",
          "type": "address"
        }
      ],
      "name": "transferOwnership",
      "outputs": [],
      "stateMutability": "nonpayable",
      "type": "function"
    },
    {
      "inputs": [
        {
          "internalType": "uint256",
          "name": "_id",
          "type": "uint256"
        }
      ],
      "name": "vote",
      "outputs": [],
      "stateMutability": "nonpayable",
      "type": "function"
    }
  ],
  "bytecode": "0x60806040523480156200001157600080fd5b50604051620010923803806200109283398181016040528101906200003791906200029c565b620000576200004b6200009a60201b60201c565b620000a260201b60201c565b80600190805190602001906200006f92919062000166565b5060006004819055506000600560006101000a81548160ff02191690831515021790555050620003f3565b600033905090565b60008060009054906101000a900473ffffffffffffffffffffffffffffffffffffffff169050816000806101000a81548173ffffffffffffffffffffffffffffffffffffffff021916908373ffffffffffffffffffffffffffffffffffffffff1602179055508173ffffffffffffffffffffffffffffffffffffffff168173ffffffffffffffffffffffffffffffffffffffff167f8be0079c531659141344cd1fd0a4f28419497f9722a3daafe3b4186f6b6457e060405160405180910390a35050565b828054828255906000526020600020908101928215620001a5579160200282015b82811115620001a457825182559160200191906001019062000187565b5b509050620001b49190620001b8565b5090565b5b80821115620001d3576000816000905550600101620001b9565b5090565b6000620001ee620001e88462000316565b620002ed565b90508083825260208201905082856020860282011115620002145762000213620003b9565b5b60005b858110156200024857816200022d888262000285565b84526020840193506020830192505060018101905062000217565b5050509392505050565b600082601f8301126200026a5762000269620003b4565b5b81516200027c848260208601620001d7565b91505092915050565b6000815190506200029681620003d9565b92915050565b600060208284031215620002b557620002b4620003c3565b5b600082015167ffffffffffffffff811115620002d657620002d5620003be565b5b620002e48482850162000252565b91505092915050565b6000620002f96200030c565b90506200030782826200034f565b919050565b6000604051905090565b600067ffffffffffffffff82111562000334576200033362000385565b5b602082029050602081019050919050565b6000819050919050565b6200035a82620003c8565b810181811067ffffffffffffffff821117156200037c576200037b62000385565b5b80604052505050565b7f4e487b7100000000000000000000000000000000000000000000000000000000600052604160045260246000fd5b600080fd5b600080fd5b600080fd5b600080fd5b6000601f19601f8301169050919050565b620003e48162000345565b8114620003f057600080fd5b50565b610c8f80620004036000396000f3fe608060405234801561001057600080fd5b50600436106100885760003560e01c80637c89d4d11161005b5780637c89d4d1146100db5780638da5cb5b1461010b578063f2fde38b14610129578063fdbc40061461014557610088565b80630121b93f1461008d57806320b8ab2d146100a95780634e69d560146100b3578063715018a6146100d1575b600080fd5b6100a760048036038101906100a29190610771565b610163565b005b6100b1610328565b005b6100bb6103d0565b6040516100c8919061093c565b60405180910390f35b6100d96103e7565b005b6100f560048036038101906100f09190610771565b61046f565b60405161010291906109f7565b60405180910390f35b6101136104d5565b60405161012091906108ff565b60405180910390f35b610143600480360381019061013e9190610744565b6104fe565b005b61014d6105f6565b60405161015a919061091a565b60405180910390f35b8060018054905081106101ab576040517f08c379a00000000000000000000000000000000000000000000000000000000081526004016101a290610997565b60405180910390fd5b600560009054906101000a900460ff166101fa576040517f08c379a00000000000000000000000000000000000000000000000000000000081526004016101f190610977565b60405180910390fd5b600260003373ffffffffffffffffffffffffffffffffffffffff1673ffffffffffffffffffffffffffffffffffffffff16815260200190815260200160002060009054906101000a900460ff1615610287576040517f08c379a000000000000000000000000000000000000000000000000000000000815260040161027e906109d7565b60405180910390fd5b60016003600084815260200190815260200160002060008282546102ab9190610a5c565b925050819055506001600260003373ffffffffffffffffffffffffffffffffffffffff1673ffffffffffffffffffffffffffffffffffffffff16815260200190815260200160002060006101000a81548160ff02191690831515021790555060016004600082825461031d9190610a5c565b925050819055505050565b61033061064e565b73ffffffffffffffffffffffffffffffffffffffff1661034e6104d5565b73ffffffffffffffffffffffffffffffffffffffff16146103a4576040517f08c379a000000000000000000000000000000000000000000000000000000000815260040161039b906109b7565b60405180910390fd5b600560009054906101000a900460ff1615600560006101000a81548160ff021916908315150217905550565b6000600560009054906101000a900460ff16905090565b6103ef61064e565b73ffffffffffffffffffffffffffffffffffffffff1661040d6104d5565b73ffffffffffffffffffffffffffffffffffffffff1614610463576040517f08c379a000000000000000000000000000000000000000000000000000000000815260040161045a906109b7565b60405180910390fd5b61046d6000610656565b565b60008160018054905081106104b9576040517f08c379a00000000000000000000000000000000000000000000000000000000081526004016104b090610997565b60405180910390fd5b6003600084815260200190815260200160002054915050919050565b60008060009054906101000a900473ffffffffffffffffffffffffffffffffffffffff16905090565b61050661064e565b73ffffffffffffffffffffffffffffffffffffffff166105246104d5565b73ffffffffffffffffffffffffffffffffffffffff161461057a576040517f08c379a0000000000000000000000000000000000000000000000000000000008152600401610571906109b7565b60405180910390fd5b600073ffffffffffffffffffffffffffffffffffffffff168173ffffffffffffffffffffffffffffffffffffffff1614156105ea576040517f08c379a00000000000000000000000000000000000000000000000000000000081526004016105e190610957565b60405180910390fd5b6105f381610656565b50565b6060600180548060200260200160405190810160405280929190818152602001828054801561064457602002820191906000526020600020905b815481526020019060010190808311610630575b5050505050905090565b600033905090565b60008060009054906101000a900473ffffffffffffffffffffffffffffffffffffffff169050816000806101000a81548173ffffffffffffffffffffffffffffffffffffffff021916908373ffffffffffffffffffffffffffffffffffffffff1602179055508173ffffffffffffffffffffffffffffffffffffffff168173ffffffffffffffffffffffffffffffffffffffff167f8be0079c531659141344cd1fd0a4f28419497f9722a3daafe3b4186f6b6457e060405160405180910390a35050565b60008135905061072981610c2b565b92915050565b60008135905061073e81610c42565b92915050565b60006020828403121561075a57610759610b33565b5b60006107688482850161071a565b91505092915050565b60006020828403121561078757610786610b33565b5b60006107958482850161072f565b91505092915050565b60006107aa8383610832565b60208301905092915050565b6107bf81610ab2565b82525050565b60006107d082610a22565b6107da8185610a3a565b93506107e583610a12565b8060005b838110156108165781516107fd888261079e565b975061080883610a2d565b9250506001810190506107e9565b5085935050505092915050565b61082c81610ac4565b82525050565b61083b81610ad0565b82525050565b600061084e602683610a4b565b915061085982610b38565b604082019050919050565b6000610871600c83610a4b565b915061087c82610b87565b602082019050919050565b6000610894600a83610a4b565b915061089f82610bb0565b602082019050919050565b60006108b7602083610a4b565b91506108c282610bd9565b602082019050919050565b60006108da600c83610a4b565b91506108e582610c02565b602082019050919050565b6108f981610afa565b82525050565b600060208201905061091460008301846107b6565b92915050565b6000602082019050818103600083015261093481846107c5565b905092915050565b60006020820190506109516000830184610823565b92915050565b6000602082019050818103600083015261097081610841565b9050919050565b6000602082019050818103600083015261099081610864565b9050919050565b600060208201905081810360008301526109b081610887565b9050919050565b600060208201905081810360008301526109d0816108aa565b9050919050565b600060208201905081810360008301526109f0816108cd565b9050919050565b6000602082019050610a0c60008301846108f0565b92915050565b6000819050602082019050919050565b600081519050919050565b6000602082019050919050565b600082825260208201905092915050565b600082825260208201905092915050565b6000610a6782610afa565b9150610a7283610afa565b9250827fffffffffffffffffffffffffffffffffffffffffffffffffffffffffffffffff03821115610aa757610aa6610b04565b5b828201905092915050565b6000610abd82610ada565b9050919050565b60008115159050919050565b6000819050919050565b600073ffffffffffffffffffffffffffffffffffffffff82169050919050565b6000819050919050565b7f4e487b7100000000000000000000000000000000000000000000000000000000600052601160045260246000fd5b600080fd5b7f4f776e61626c653a206e6577206f776e657220697320746865207a65726f206160008201527f6464726573730000000000000000000000000000000000000000000000000000602082015250565b7f566f746520636c6f7365642e0000000000000000000000000000000000000000600082015250565b7f496e76616c696420494400000000000000000000000000000000000000000000600082015250565b7f4f776e61626c653a2063616c6c6572206973206e6f7420746865206f776e6572600082015250565b7f596f7527766520766f7465640000000000000000000000000000000000000000600082015250565b610c3481610ab2565b8114610c3f57600080fd5b50565b610c4b81610afa565b8114610c5657600080fd5b5056fea2646970667358221220df927c4cd14811bc2f811e9f4bf3e0bb2d15c1ad3c5dc12d06af6de604991b7164736f6c63430008070033",
  "linkReferences": {},
  "deployedLinkReferences": {}
}